:020000040800F2
:10000000000002203D1200082111000829110008FB
:1000100031110008391100084111000800000000EA
:10002000000000000000000000000000491100086E
:100030005711000800000000651100087311000846
:100040008D1200088D1200088D1200088D12000814
:100050008D1200088D1200088D1200088D12000804
:100060008D1200088D1200088D1200088D120008F4
:100070008D1200088D1200088D1200088D120008E4
:100080008D1200088D1200088D120008000000007B
:100090000000000000000000000000008D120008B9
:1000A0008D1200088D1200088D1200088D120008B4
:1000B0008D120008811100088D1200088D120008B1
:1000C0008D1200088D1200088D1200088D12000894
:1000D0008D1200088D1200088D120008000000002B
:1000E0008D1200088D1200088D120008000000001B
:1000F0000000000000000000000000008D12000859
:10010000000000008D1200088D1200088D120008FA
:1001100000000000000000000000000000000000DF
:100120008D1200088D1200088D1200088D12000833
:100130008D12000800000000000000000000000018
:1001400000000000000000000000000099110008FD
:100150008D1200088D1200088D1200088D12000803
:100160008D1200088D120008000000000000000041
:10017000000000000000000000000000000000007F
:10018000000000008D1200080000000000000000C8
:080190008D1200088D12000819
:1001A00010B5054C237833B9044B13B10448AFF3B1
:1001B00000800123237010BD4C01002000000000CE
:1001C0004086000808B5034B1BB103490348AFF351
:1001D000008008BD0000000050010020408600089B
:1001E000034613F8012B002AFBD1181A0138704777
:1001F00001F0FF01102A2BDB10F0070F08D010F8D8
:10020000013B013A8B422DD010F0070F42B3F6D1DB
:10021000F0B441EA012141EA014122F007047FF0F4
:1002200000070023F0E80256083C85EA010586EA4B
:10023000010685FA47F5A3FA87F586FA47F6A5FA87
:1002400087F68EB9EED1F0BC01F0FF0102F0070293
:1002500032B110F8013B013A83EA010313B1F8D13E
:100260000020704701387047002D06BF354603381F
:10027000073815F0010F07D1013015F4807F02BF58
:10028000013015F4C03F0130F0BC0138704700BFA9
:1002900053B94AB9002908BF00281CBF4FF0FF31ED
:1002A0004FF0FF3000F088B9ADF1080C6DE904CED5
:1002B00000F006F8DDF804E0DDE9022304B0704741
:1002C0002DE9F047089D0F4604468C46002B48D187
:1002D0008A42164661D9B2FA82F34BB1C3F12002C9
:1002E00001FA03FC20FA02F29E4042EA0C0C9C4008
:1002F0004FEA164EB7B2BCFBFEF1220C0EFB11CC3E
:1003000042EA0C4201FB07F0904209D9B21801F110
:10031000FF3C80F0EE80904240F2EB8002393244A4
:10032000121AA4B2B2FBFEF00EFB102244EA024401
:1003300000FB07F7A74209D9341900F1FF3280F01A
:10034000DA80A74240F2D7803444023840EA0140C4
:10035000E41B00211DB1DC400023C5E90043BDE8DA
:10036000F0878B4206D90DB1C5E90001002108468E
:10037000BDE8F087B3FA83F1002948D1BB4202D32C
:10038000824200F20781841A67EB0302012094463F
:10039000002DE4D0C5E9004CE1E7002A00F092808E
:1003A000B2FA82F3002B40F0A8808A1A4FEA164E68
:1003B0001FFA86FC0121200CB2FBFEF70EFB172270
:1003C00040EA02420CFB07F0904207D9B21807F14D
:1003D000FF3802D2904200F2E2804746121AA4B2DD
:1003E000B2FBFEF00EFB102244EA02440CFB00FCC0
:1003F000A44507D9341900F1FF3202D2A44500F216
:10040000CB801046A4EB0C0440EA0740A2E7C1F100
:1004100020068B4022FA06FC4CEA030C07FA01F492
:1004200020FA06F3F7404FEA1C49234300FA01F88B
:100430001FFA8CFEB7FBF9F01C0C09FB107744EA9D
:10044000074400FB0EF7A74202FA01F20AD91CEB9F
:10045000040400F1FF3A80F09B80A74240F29880AC
:1004600002386444E41B9FB2B4FBF9F309FB134464
:1004700047EA044403FB0EFEA64509D91CEB04041D
:1004800003F1FF3780F08280A6457FD9023B6444A8
:1004900043EA0040A4EB0E04A0FB02E7BC42734613
:1004A000B94663D360D05DB1B8EB030264EB0904D5
:1004B00004FA06F622FA01F31E43CC40C5E90064B3
:1004C00000214CE76208480842EAC1710B0C43EA7C
:1004D00000438AB242EA0342B3FBF6F1E407B446B2
:1004E0003746B6461F23B0FBF6F0D21B41EA004167
:1004F00061E7614614E7104628E7C3F1200120FABE
:1005000001F29E4027FA01F19F403A434FEA164E0E
:100510001FFA86FCB1FBFEF70EFB1710110C41EA27
:10052000004107FB0CF8884504FA03F43AD9711826
:1005300007F1FF3001D288451FD8A1EB0801B1FBBC
:10054000FEF808FB0CF70EFB181192B242EA0142CA
:10055000BA422FD2B21808F1FF31C6D2BA42C4D281
:10056000A8F102013244C0E7F0459CD2BEEB020381
:1005700067EB0C070138B94695E7A6EB080841443C
:10058000B81EB1FBFEF808FB0CF7DCE73B467FE743
:10059000504667E70846FBE63444023832E7023F3C
:1005A00032441BE7A1EB08013846B1FBFEF808FB1B
:1005B0000CF7C8E7414698E7704700BF80B491B098
:1005C00000AF8A4B1B78002B0AD0884B1B78013B6D
:1005D000DAB2864B1A70864B4FF480329A611FE074
:1005E000844B1B68002B1BD0834B1B68002B03D153
:1005F0007F4B01229A6107E07F4B1B68012B03D1DF
:100600007B4B4FF480329A617B4B1B6801337A4AF3
:100610001360784A1268934202D3774B00221A6023
:10062000764B1B78002B0AD0744B1B78013BDAB257
:10063000724B1A70724B4FF480029A611FE0714B3B
:100640001B68002B1BD0704B1B68002B03D16C4B1D
:1006500040229A6107E06C4B1B68012B03D1684B69
:100660004FF480029A61684B1B680133664A13603D
:10067000644A1268934202D3634B00221A60634BB0
:100680001B780133DAB2614B1A70604B1B78092B6F
:1006900040F2D9815D4B00221A705D4B1B68FB61F3
:1006A0005C4B1B68FB635C4B1B88002B12D05A4BC6
:1006B0001B88013B9AB2584B1A804E4B00221A609D
:1006C0004D4B00221A604A4B4FF480329A6100234E
:1006D000FB6321E0FB69002B1ED0FB6B002B1BD0C2
:1006E000FB69002B02DDFB6B002B05DBFB69002B9C
:1006F00012DAFB6B002B0FDD474B4FF4FA721A80B6
:100700003C4B00221A603C4B00221A60384B4FF4DD
:1007100080329A610023FB63FA69FB6B9A4200F016
:10072000B580FA6BFB69D31ABB61BB69002B01DD95
:10073000042301E06FF00303BB63BB69002B03DDFF
:10074000BA6BBB699A4206DCBB69002B05DABA6B4F
:10075000BB699A4201DABB69BB63FA69BB6B13449C
:100760007B63FB69002B02DD7B6B002B05DBFB69E8
:10077000002B04DA7B6B002B01DD00237B637B6B9A
:1007800044F62062934202DD44F620637B637B6B78
:10079000224A934201DA214B7B631D4A7B6B136033
:1007A0007B6B002B0AD1134B00221A60124B0022E4
:1007B0001A600F4B4FF480329A6167E07B6B002B1D
:1007C000CCBF01230023DBB21A46154B1B785BB26A
:1007D0009A4201D0012300E00023FB75FB7D002B32
:1007E00020D0034B02229A6120E000BF19030020B1
:1007F00000040240B0010020B40100201A030020D0
:1008000000000240B8010020BC0100201B030020B2
:10081000C8010020C00100201C030020E0B1FFFF40
:10082000D00100208B4B4FF400329A618A4B1B7829
:10083000FA7D9A420CD0884AFB7D1370854B4FF4A9
:1008400080329A61854B00221A60854B05221A700E
:100850007B6B002BB8BF5B423B613B695B0803F5D8
:10086000C333A0333A69B3FBF2F33B633B6B012B19
:1008700001D802233B637B4A3B6B1360774B1B68B9
:100880003A6B9A4202D8754B00221A60764B1B686D
:10089000FB60764B1B68FB62754B1B88002B12D0EC
:1008A000734B1B88013B9AB2714B1A80714B00222B
:1008B0001A60714B00221A60704B4FF480029A61EB
:1008C0000023FB6221E0FB68002B1ED0FB6A002B9B
:1008D0001BD0FB68002B02DDFB6A002B05DBFB68ED
:1008E000002B12DAFB6A002B0FDD614B4FF4FA721A
:1008F0001A80604B00221A605F4B00221A605F4B27
:100900004FF480029A610023FB62FA68FB6A9A4204
:1009100000F09A80FA6AFB68D31ABB60BB68002BB0
:1009200001DD042301E06FF00303BB62BB68002B11
:1009300003DDBA6ABB689A4206DCBB68002B05DAA5
:10094000BA6ABB689A4201DABB68BB62FA68BB6AE2
:1009500013447B62FB68002B02DD7B6A002B05DB06
:10096000FB68002B04DA7B6A002B01DD00237B622D
:100970007B6A44F62062934202DD44F620637B6288
:100980007B6A3F4A934201DA3D4B7B62364A7B6A7F
:1009900013607B6A002B0AD1364B00221A60364B5B
:1009A00000221A60354B4FF480029A614CE07B6A5A
:1009B000002BCCBF01230023DBB21A46314B1B783E
:1009C0005BB29A4201D0012300E00023FB71FB7966
:1009D000002B03D0294B80229A6103E0274B4FF470
:1009E00000029A61284B1B78FA799A420CD0264A69
:1009F000FB791370214B4FF480029A611E4B002249
:100A00001A60224B05221A707B6A002BB8BF5B422A
:100A10003B603B685B0803F5C333A0333A68B3FB24
:100A2000F2F33B623B6A012B01D802233B62114A7D
:100A30003B6A1360104B1B683A6A9A4204D80E4B0B
:100A400000221A6000E000BF4437BD465DF8047B19
:100A5000704700BF000402401E030020B4010020C4
:100A600019030020B0010020CC010020C4010020A7
:100A700020030020B8010020BC010020000002403B
:100A8000E0B1FFFFD1010020220300201A03002063
:100A900080B582B000AF78607868FFF7A1FB0346AD
:100AA0009BB21946786806F035FC00BF0837BD4692
:100AB00080BD000090B599B004AF78607B681B786A
:100AC000532B03D07B681B78732B1DD18D4B0022D9
:100AD0001A608D4B00221A608C4B00221A608C4BDE
:100AE00000221A608B4B00221A608B4B00221A6086
:100AF0008A4B4FF480329A61894B4FF480029A619D
:100B00008848FFF7C5FFFAE07B681B78492B03D0C4
:100B10007B681B78692B23D17B6801331B78502BB2
:100B200004D07B6801331B78702B19D17E4B1B7866
:100B30005BB2002B0CBF01230023DBB25AB27A4B0D
:100B40001A70794B1B785BB207F10800774A402195
:100B500007F0BAF807F108031846FFF799FFCEE04F
:100B60007B681B78492B03D07B681B78692B23D1CA
:100B70007B6801331B78542B04D07B6801331B78CE
:100B8000742B19D16A4B1B785BB2002B0CBF01236D
:100B90000023DBB25AB2664B1A70654B1B785BB20E
:100BA00007F10800634A402107F08EF807F10803B7
:100BB0001846FFF76DFFA2E07B681B783F2B1AD128
:100BC000524B1A68524B1B685749097849B20C4678
:100BD0005749097849B207F108000291019400933E
:100BE0001346554A402107F06FF807F108031846ED
:100BF000FFF74EFF83E07B681B78502B03D07B68A8
:100C00001B78702B39D17B6801331B782B2B04D0D8
:100C10007B6801331B782D2B1ED17B68023318466D
:100C200006F0CAFFF864FB6C002B01DA0023FB64BA
:100C3000FB6C44F62062934202DD44F62063FB64C1
:100C40007B6801331B782D2B02D1FB6C5B4200E0EB
:100C5000FB6C2C4A136002E02A4B00221A60294BDD
:100C60001B6807F10800354A402107F02DF807F10D
:100C700008031846FFF70CFF41E07B681B78542BF4
:100C800003D07B681B78742B39D17B6801331B78C8
:100C90002B2B04D07B6801331B782D2B1ED17B6856
:100CA0000233184606F088FFB864BB6C002B01DAEB
:100CB0000023BB64BB6C44F62062934202DD44F621
:100CC0002063BB647B6801331B782D2B02D1BB6C86
:100CD0005B4200E0BB6C0C4A136002E00A4B00224E
:100CE0001A60094B1B6807F10800154A402106F0FD
:100CF000EBFF07F108031846FFF7CAFE00BF5437A1
:100D0000BD4690BDC0010020C4010020C8010020E4
:100D1000CC010020B0010020B801002000040240F6
:100D20000000024058860008D001002060860008BC
:100D3000D10100206C86000878860008948600089F
:100D4000A086000880B485B000AF786039600023C9
:100D5000FB601EE0144B1B889BB201335A42DBB28E
:100D6000D2B258BF53427B81104B1B889BB27A8909
:100D70009A420BD07A68FB6813440B4A128892B2ED
:100D800019780B4B9954084A7B891380FB6801330F
:100D9000FB60FA683B689A42DCD300BF00BF14379F
:100DA000BD465DF8047B7047D4020020D6020020C7
:100DB000D401002080B582B000AF3BE0244B1B88FB
:100DC0009BB21A46234B9B5CFB71214B1B889BB249
:100DD00001335A42DBB2D2B258BF53429AB21C4BD3
:100DE0001A80FB790A2B02D0FB790D2B10D11A4BFC
:100DF0001B78002B1ED0184B1B781A46174B00216E
:100E000099541648FFF756FE134B00221A7011E052
:100E1000114B1B783E2B0AD80F4B1B785A1CD1B2B2
:100E20000D4A117019460D4AFB79535402E00A4BE2
:100E300000221A70064B1B889AB2094B1B889BB282
:100E40009A42BBD100BF00BF0837BD4680BD00BF7E
:100E5000D6020020D401002018030020D802002070
:100E6000D402002080B500AF00F012FA00F00EF8B6
:100E700000F09AF800F076F806F088F9024802F0DF
:100E800029FCFFF797FFFCE76801002080B594B0CC
:100E900000AF07F1200330220021184606F04AFF78
:100EA00007F10C0300221A605A609A60DA601A6136
:100EB0000023BB60294B1B6C284A43F0805313640A
:100EC000264B1B6C03F08053BB60BB6800237B6028
:100ED000234B1B68224A43F440431360204B1B689A
:100EE00003F440437B607B6801233B624FF4803313
:100EF0007B620223BB634FF48003FB6319233B64D3
:100F00004FF4A8737B640423BB640723FB6407F1DD
:100F10002003184601F054FF0346002B01D000F0D7
:100F2000A9F80F23FB6002233B6100237B614FF490
:100F30008053BB610023FB6107F10C0302211846BB
:100F400002F0B6F90346002B01D000F093F802F04E
:100F500095FA00BF5037BD4680BD00BF0038024043
:100F60000070004080B500AF0D4B0E4A1A600C4B6C
:100F700053225A600A4B00229A60094B0922DA6018
:100F8000074B00221A61064B00229A61044802F0C6
:100F900051FB0346002B01D000F06CF800BF80BD70
:100FA000680100200004004080B588B000AF07F160
:100FB0000C0300221A605A609A60DA601A610023FA
:100FC000BB60294B1B6B284A43F080031363264BFD
:100FD0001B6B03F08003BB60BB6800237B60224B6C
:100FE0001B6B214A43F0010313631F4B1B6B03F080
:100FF00001037B607B6800233B601B4B1B6B1A4A21
:1010000043F002031363184B1B6B03F002033B60B6
:101010003B680022C021154800F066FC0022032135
:10102000134800F061FCC023FB6001233B610023F7
:101030007B610323BB6107F10C0319460B4800F0E9
:10104000CFFA0323FB6001233B6100237B61032371
:10105000BB6107F10C031946054800F0C1FA00BF57
:101060002037BD4680BD00BF00380240000002406E
:101070000004024080B400AF72B600BF00BFFDE7BD
:1010800080B483B000AF00237B60104B5B6C0F4AD1
:1010900043F4804353640D4B5B6C03F480437B60EB
:1010A0007B6800233B60094B1B6C084A43F080536C
:1010B0001364064B1B6C03F080533B603B6800BF1E
:1010C0000C37BD465DF8047B704700BF0038024016
:1010D00080B584B000AF78607B681B680E4A93428D
:1010E00015D10023FB600D4B1B6C0C4A43F002032F
:1010F00013640A4B1B6C03F00203FB60FB680022C5
:1011000000211D2000F035FA1D2000F04EFA00BF2E
:101110001037BD4680BD00BF0004004000380240CB
:1011200080B400AF00BFFDE780B400AF00BFFDE7B3
:1011300080B400AF00BFFDE780B400AF00BFFDE7A3
:1011400080B400AF00BFFDE780B400AF00BFBD4674
:101150005DF8047B704780B400AF00BFBD465DF80A
:10116000047B704780B400AF00BFBD465DF8047BD0
:10117000704780B500AF00F0DDF800BF80BD000013
:1011800080B500AF034802F007FBFFF717FA00BF76
:1011900080BD00BF6801002080B500AF024800F0AC
:1011A00000FD00BF80BD00BF0C18002080B586B0D8
:1011B00000AF7860144A154BD31A7B617B693B61A1
:1011C000134B1B68002B02D1114B124A1A60104BB3
:1011D0001A687B6813443A699A4207D206F0B2FD56
:1011E00003460C221A604FF0FF3309E0084B1B68DE
:1011F000FB60074B1A687B681344054A1360FB6861
:1012000018461837BD4680BD0000022000040000CB
:10121000240300205820002080B400AF064BD3F8F0
:101220008830054A43F47003C2F8883000BFBD46D9
:101230005DF8047B704700BF00ED00E0DFF834D0BC
:10124000FFF7EAFF0C480D490D4A002302E0D4588D
:10125000C4500433C4188C42F9D30A4A0A4C002300
:1012600001E013600432A242FBD306F071FDFFF7E8
:10127000F9FD704700000220000000204C01002012
:10128000488800084C01002058200020FEE700009C
:1012900080B500AF0E4B1B680D4A43F4007313601A
:1012A0000B4B1B680A4A43F480631360084B1B68AE
:1012B000074A43F480731360032000F04FF90F20B6
:1012C00000F008F8FFF7DCFE0023184680BD00BFE1
:1012D000003C024080B582B000AF7860124B1A68C3
:1012E000124B1B7819464FF47A73B3FBF1F3B2FB40
:1012F000F3F3184600F067F90346002B01D00123F1
:101300000EE07B680F2B0AD8002279684FF0FF307F
:1013100000F02FF9064A7B681360002300E00123E8
:1013200018460837BD4680BD000000200800002098
:101330000400002080B400AF064B1B781A46064B11
:101340001B681344044A136000BFBD465DF8047B6C
:10135000704700BF080000202803002080B400AFC1
:10136000034B1B681846BD465DF8047B704700BF01
:101370002803002080B584B000AF7860FFF7EEFF4F
:10138000B8607B68FB60FB68B3F1FF3F05D00A4B98
:101390001B781A46FB681344FB6000BFFFF7DEFFB3
:1013A0000246BB68D31AFA689A42F7D800BF00BF5A
:1013B0001037BD4680BD00BF0800002080B485B056
:1013C00000AF78607B6803F00703FB600C4BDB68C1
:1013D000BB60BA684FF6FF031340BB60FB681A029C
:1013E000BB68134343F0BF6343F40033BB60044A5C
:1013F000BB68D36000BF1437BD465DF8047B7047FF
:1014000000ED00E080B400AF044BDB681B0A03F082
:1014100007031846BD465DF8047B704700ED00E009
:1014200080B483B000AF0346FB7197F90730002BFF
:101430000BDBFB7903F01F02074997F907305B09C3
:10144000012000FA02F241F8232000BF0C37BD460C
:101450005DF8047B704700BF00E100E080B483B01A
:1014600000AF03463960FB7197F90730002B0ADBA8
:101470003B68DAB20C4997F907301201D2B20B443B
:1014800083F800230AE03B68DAB20849FB7903F0ED
:101490000F03043B1201D2B20B441A7600BF0C3783
:1014A000BD465DF8047B704700E100E000ED00E020
:1014B00080B489B000AFF860B9607A60FB6803F06F
:1014C0000703FB61FB69C3F10703042B28BF042357
:1014D000BB61FB690433062B02D9FB69033B00E0C7
:1014E00000237B614FF0FF32BB6902FA03F3DA435A
:1014F000BB681A407B699A404FF0FF317B6901FA63
:1015000003F3D9437B680B40134318462437BD4689
:101510005DF8047B7047000080B582B000AF786052
:101520007B68013BB3F1807F01D301230FE00A4ABE
:101530007B68013B53600F214FF0FF30FFF78EFFB8
:10154000054B00229A60044B07221A6000231846BC
:101550000837BD4680BD00BF10E000E080B582B016
:1015600000AF78607868FFF729FF00BF0837BD46F5
:1015700080BD80B586B000AF0346B9607A60FB736A
:1015800000237B61FFF73EFF78617A68B96878696C
:10159000FFF78EFF024697F90F3011461846FFF706
:1015A0005DFF00BF1837BD4680BD80B582B000AF7B
:1015B0000346FB7197F907301846FFF731FF00BF6C
:1015C0000837BD4680BD80B582B000AF78607868CE
:1015D000FFF7A2FF034618460837BD4680BD00004E
:1015E00080B489B000AF7860396000237B6100234C
:1015F0003B610023BB610023FB6159E10122FB69D0
:1016000002FA03F37B613B681B687A6913403B6114
:101610003A697B699A4240F048813B685B6803F015
:101620000303012B05D03B685B6803F00303022B27
:1016300030D17B689B68BB61FB695B00032202FAC7
:1016400003F3DB43BA691340BB613B68DA68FB69AB
:101650005B0002FA03F3BA691343BB617B68BA69A2
:101660009A607B685B68BB610122FB6902FA03F345
:10167000DB43BA691340BB613B685B681B0903F03D
:101680000102FB6902FA03F3BA691343BB617B6889
:10169000BA695A603B685B6803F00303032B17D0F9
:1016A0007B68DB68BB61FB695B00032202FA03F322
:1016B000DB43BA691340BB613B689A68FB695B0016
:1016C00002FA03F3BA691343BB617B68BA69DA6053
:1016D0003B685B6803F00303022B23D1FB69DA0844
:1016E0007B68083253F82230BB61FB6903F00703C3
:1016F0009B000F2202FA03F3DB43BA691340BB617C
:101700003B681A69FB6903F007039B0002FA03F3C5
:10171000BA691343BB61FB69DA087B680832B969AF
:1017200043F822107B681B68BB61FB695B000322E6
:1017300002FA03F3DB43BA691340BB613B685B68A1
:1017400003F00302FB695B0002FA03F3BA69134377
:10175000BB617B68BA691A603B685B6803F440331D
:10176000002B00F0A2800023FB60574B5B6C564AB5
:1017700043F480435364544B5B6C03F48043FB603D
:10178000FB68524AFB699B08023352F82330BB6165
:10179000FB6903F003039B000F2202FA03F3DB4310
:1017A000BA691340BB617B68494A934219D07B6890
:1017B000484A934213D07B68474A93420DD07B68D6
:1017C000464A934207D07B68454A934201D104239D
:1017D00008E0072306E0032304E0022302E00123DC
:1017E00000E00023FA6902F0030292009340BA6914
:1017F0001343BB613549FB699B080233BA6941F861
:101800002320384B9B68BB613B69DB43BA691340BB
:10181000BB613B685B6803F48013002B03D0BA699B
:101820003B691343BB612F4ABB6993602D4BDB6857
:10183000BB613B69DB43BA691340BB613B685B68D2
:1018400003F40013002B03D0BA693B691343BB6157
:10185000244ABB69D360234B5B68BB613B69DB43B4
:10186000BA691340BB613B685B6803F40033002B2B
:1018700003D0BA693B691343BB611A4ABB69536021
:10188000184B1B68BB613B69DB43BA691340BB6102
:101890003B685B6803F48033002B03D0BA693B6973
:1018A0001343BB610F4ABB691360FB690133FB61E2
:1018B000FB690F2B7FF6A2AE00BF00BF2437BD46E9
:1018C0005DF8047B704700BF0038024000380140DB
:1018D000000002400004024000080240000C0240E8
:1018E00000100240003C014080B483B000AF78603B
:1018F0000B467B8013467B707B78002B03D07A8865
:101900007B689A6103E07B881A047B689A6100BF58
:101910000C37BD465DF8047B704780B586B002AFDA
:1019200078607B68002B01D1012301E17B681B6893
:10193000BB607B6893F89534DBB2002B06D17B68E3
:10194000002283F89424786805F02CFE7B6803223B
:1019500083F89524BB68B3F1A04F02D17B680022C5
:101960009A717B681B68184602F0E9F97B68186871
:101970007B681A7C8DF8002004330ECB02F0C8F887
:101980000346002B05D07B68022283F895240123AF
:10199000CEE07B681B680021184602F0E1F903469F
:1019A000002B05D07B68022283F895240123BFE039
:1019B0000023FB734AE0FA7B79681346DB0013448B
:1019C0009B000B44153301221A70FA7B7968134689
:1019D000DB0013449B000B441433FA7B1A70FA7B30
:1019E000FB7B98B279681346DB0013449B000B44E1
:1019F0002E3302461A80FA7B79681346DB001344C3
:101A00009B000B44183300221A70FA7B7968134646
:101A1000DB0013449B000B441C3300221A60FA7B4A
:101A200079681346DB0013449B000B4420330022EB
:101A30001A60FA7B79681346DB0013449B000B4461
:101A4000243300221A60FB7B0133FB737B681B7914
:101A5000FA7B9A42AFD30023FB7344E0FA7B7968A8
:101A60001346DB0013449B000B4403F25523002272
:101A70001A70FA7B79681346DB0013449B000B4411
:101A800003F51573FA7B1A70FA7B79681346DB004D
:101A900013449B000B4403F5167300221A70FA7B63
:101AA00079681346DB0013449B000B4403F517735E
:101AB00000221A60FA7B79681346DB0013449B000E
:101AC0000B4403F5187300221A60FA7B79681346F9
:101AD000DB0013449B000B4403F5197300221A60CA
:101AE000FB7B0133FB737B681B79FA7B9A42B5D38E
:101AF0007B6818687B681A7C8DF8002004330ECB55
:101B000002F07AF90346002B05D07B68022283F8A5
:101B1000952401230CE07B6800225A747B68012223
:101B200083F895247B681B68184603F0C4F90023EA
:101B300018461037BD4680BD80B584B000AF7860D0
:101B40007B681B68FB607B6893F89434012B01D1A0
:101B5000022322E07B68012283F89424FB68DB687F
:101B600003F04003002B09D07B685B7B012B05D180
:101B7000FB689B6B43F48032FB689A637B681B684D
:101B8000184602F0CBF87B681B68184603F072F920
:101B90007B68002283F89424002318461037BD4642
:101BA00080BD90B58DB000AF78607B681B683B62EC
:101BB0003B6AFB617B681B68184603F030FA0346FA
:101BC000002B40F08C847B681B68184603F094F966
:101BD0000346002B00F08284FB6903F500639B68D9
:101BE0001B0AC3F30D027B68C3F8D4247B681B680F
:101BF000184603F081F9034603F00203022B07D1D4
:101C00007B681B685A697B681B6802F002025A6194
:101C10007B681B68184603F06FF9034603F0100356
:101C2000102B61D17B681B689A697B681B6822F066
:101C300010029A613B6A1B6ABB61BB6903F00F0229
:101C40001346DB0013449B0003F514737A681344B6
:101C500004337B61BB6903F4F013B3F5802F24D107
:101C6000BA6947F6F0731340002B35D07B69D96809
:101C7000BB691B099BB2C3F30A039BB21A46386ABD
:101C800002F0A6FF7B69DA68BB691B09C3F30A038C
:101C90001A447B69DA607B695A69BB691B09C3F323
:101CA0000A031A447B695A6116E0BB6903F4F01316
:101CB000B3F5402F10D17B6803F29C4308221946EC
:101CC000386A02F085FF7B695A69BB691B09C3F357
:101CD0000A031A447B695A617B681B689A697B68AE
:101CE0001B6842F010029A617B681B68184603F07B
:101CF00003F9034603F40023B3F5002F40F0A78057
:101D000000237B627B681B68184603F008F9B86201
:101D100099E0BB6A03F00103002B00F08E807B6822
:101D20001B687A6AD2B21146184603F02CF9386162
:101D30003B6903F00103002B0CD07B6A5A01FB695D
:101D4000134403F530631A4601239360796A786877
:101D500000F0A4FE3B6903F00803002B0CD07B6A63
:101D60005A01FB69134403F530631A460823936054
:101D7000796A786800F07AFF3B6903F01003002B62
:101D800008D07B6A5A01FB69134403F530631A4695
:101D9000102393603B6903F00203002B30D03B6AB1
:101DA0005B6903F08003802B09D1FB6903F50063B5
:101DB0005B68FA6902F5006243F4806353607A6AF3
:101DC0001346DB0013449B0003F514737A68134435
:101DD00004337B617B69DB78012B08D17B690022AE
:101DE000DA707B6ADBB21946786805F0D7FC7B6A4B
:101DF0005A01FB69134403F530631A4602239360CA
:101E00003B6903F02003002B08D07B6A5A01FB6971
:101E1000134403F530631A46202393603B6903F4AF
:101E20000053002B09D07B6A5A01FB69134403F568
:101E300030631A464FF4005393607B6A01337B6230
:101E4000BB6A5B08BB62BB6A002B7FF462AF7B6836
:101E50001B68184603F050F8034603F48023B3F5DB
:101E6000802F40F0DB807B681B68184603F071F818
:101E7000B86200237B62CDE0BB6A03F00103002B54
:101E800000F0C2807B681B687A6AD2B2114618469D
:101E900003F097F838613B6903F00103002B57D03A
:101EA0007B6A03F00F03012202FA03F3FB60FB6974
:101EB00003F500635A6BFB68DB43F96901F50061C8
:101EC00013404B637B6A5A01FB69134403F51063AB
:101ED0001A46012393607B689B79012B32D1796884
:101EE0007A6A1346DB0013449B000B4420331968C5
:101EF00078687A6A1346DB0013449B0003441C3362
:101F00001B68194478687A6A1346DB0013449B0007
:101F10000344203319607B6A002B13D179687A6AF5
:101F20001346DB0013449B000B4424331B68002B37
:101F300008D17B6818687B6803F29C431A4601212C
:101F400003F09EF87B6ADBB21946786805F0ABFBBC
:101F50003B6903F00803002B08D07B6A5A01FB6938
:101F6000134403F510631A46082393603B6903F09A
:101F70001003002B08D07B6A5A01FB69134403F558
:101F800010631A46102393603B6903F04003002B53
:101F900008D07B6A5A01FB69134403F510631A46A3
:101FA000402393603B6903F00203002B23D0796A3E
:101FB000386A02F085F87A6A1346DB0013449B0006
:101FC00010337A68134404337B617B69DB78012B1F
:101FD00008D17B690022DA707B6ADBB21946786827
:101FE00005F0EEFB7B6A5A01FB69134403F51063AD
:101FF0001A46022393603B6903F08003002B03D051
:10200000796A786800F0BDFC7B6A01337B62BB6A49
:102010005B08BB62BB6A002B7FF42EAF7B681B683A
:10202000184602F069FF034603F00043B3F1004F86
:1020300022D1FB6903F500635B68FA6902F500626F
:1020400023F0010353607B6893F8CC34012B08D153
:102050007B68002283F8CC240021786800F0A4FE7D
:1020600002E0786805F08CFB7B681B685A697B6826
:102070001B6802F000425A617B681B68184602F038
:102080003BFF034603F40063B3F5006F12D1FB6915
:1020900003F500639B6803F00103012B02D178680C
:1020A00005F048FB7B681B685A697B681B6802F473
:1020B00000625A617B681B68184602F01DFF0346E8
:1020C00003F48053B3F5805F40F0B780FB6903F5FC
:1020D00000635B68FA6902F5006223F00103536054
:1020E0007B681B681021184601F0EAFF0023FB62A1
:1020F00046E0FB6A5A01FB69134403F510631A4674
:102100004FF67F339360FB6A5A01FB69134403F572
:1021100010631B68FA6A5101FA690A4402F51062F9
:1021200023F400131360FB6A5A01FB69134403F59F
:1021300030631A464FF67F339360FB6A5A01FB699E
:10214000134403F530631B68FA6A5101FA690A44C3
:1021500002F5306223F400131360FB6A5A01FB6935
:10216000134403F530631B68FA6A5101FA690A44A3
:1021700002F5306243F000631360FB6A0133FB62D7
:102180007B681B791A46FB6A9342B2D3FB6903F55D
:102190000063DB69FA6902F5006243F00113D36161
:1021A0007B68DB7B002B16D0FB6903F50063D3F85B
:1021B0008430FA6902F5006243F00B03C2F8843000
:1021C000FB6903F500635B6CFA6902F5006243F09A
:1021D0000B03536415E0FB6903F500635B69FA695F
:1021E00002F5006243F4005343F02B035361FB6993
:1021F00003F500631B69FA6902F5006243F00B0303
:102200001361FB6903F500631B68FA6902F500625C
:1022100023F4FE6313607B6818687B6899797B6898
:1022200003F29C431A4602F02BFF7B681B685A6935
:102230007B681B6802F480525A617B681B681846F1
:1022400002F05AFE034603F40053B3F5005F23D1B6
:102250007B681B68184602F0F0FE7B681B68184616
:1022600001F0A7FF03461A467B68DA717B681C6899
:1022700001F0D4F901467B68DB791A46204601F06B
:10228000ABFC786805F037FA7B681B685A697B6895
:102290001B6802F400525A617B681B68184602F002
:1022A0002BFE034603F00803082B0AD1786805F0DB
:1022B00014FA7B681B685A697B681B6802F0080285
:1022C0005A617B681B68184602F016FE034603F04D
:1022D0008003802B23D13B6A9B6923F080023B6AF9
:1022E0009A6101237B6214E079687A6A1346DB0005
:1022F00013449B000B4403F257231B78012B05D199
:102300007B6ADBB21946786800F00AFB7B6A01330E
:102310007B627B681B791A467B6A9342E4D37B68B5
:102320001B68184602F0E8FD034603F48013B3F57A
:10233000801F3CD101237B622BE07B6A5A01FB6941
:10234000134403F510631B68BB6179687A6A13460E
:10235000DB0013449B000B4418331B78012B15D171
:10236000BB69002B12DA79687A6A1346DB001344E2
:102370009B000B44173301221A707B6ADBB263F0B7
:102380007F03DBB21946786800F0CAFA7B6A013332
:102390007B627B681B791A467B6A9342CDD37B684C
:1023A0001B685A697B681B6802F480125A617B685B
:1023B0001B68184602F0A0FD034603F40013B3F5B2
:1023C000001F56D101237B6245E07B6A5A01FB69FD
:1023D000134403F530631B68BB6179687A6A13465E
:1023E000DB0013449B000B4403F516731B78012B91
:1023F0002ED1BB69002B2BDABB691A0C7B68D3F892
:10240000D434534003F00103002B21D179687A6A58
:102410001346DB0013449B000B4403F257230122B5
:102420001A703B6A9B6943F080023B6A9A613B6A7F
:102430005B6903F08003002B0AD1FB6903F500639D
:102440005B68FA6902F5006243F40073536008E0C8
:102450007B6A01337B627B681B791A467B6A9342F5
:10246000B3D37B681B685A697B681B6802F400124F
:102470005A617B681B68184602F03EFD034603F074
:102480008043B3F1804F0AD1786805F0ABF97B68DF
:102490001B685A697B681B6802F080425A617B683E
:1024A0001B68184602F028FD034603F00403042BC2
:1024B00015D17B681B685B68BB61BB6903F00403D3
:1024C000002B02D0786805F09BF97B681B6859687F
:1024D0007B681B68BA690A435A6000E000BF343762
:1024E000BD4690BD80B582B000AF78600B46FB70F2
:1024F0007B6893F89434012B01D1022312E07B68AE
:10250000012283F894247B68FA785A747B681B68EC
:10251000FA781146184602F087FC7B68002283F89F
:102520009424002318460837BD4680BD80B584B08A
:1025300000AF7860084611461A460346FB700B460A
:102540003B801346BB700023FB7297F90330002BCE
:102550000FDAFB7803F00F021346DB0013449B00F5
:1025600010337A6813440433FB60FB6801225A700D
:102570000FE0FB7803F00F021346DB0013449B00CF
:1025800003F514737A6813440433FB60FB6800227C
:102590005A70FB7803F00F03DAB2FB681A703B88BD
:1025A000C3F30A02FB689A60FB68BA781A71FB6889
:1025B0005B78002B04D0FB681B781A46FB685A83B3
:1025C000BB78022B02D1FB6800225A717B6893F81A
:1025D0009434012B01D102230EE07B68012283F8A1
:1025E00094247B681B68F968184601F007FE7B6835
:1025F000002283F89424FB7A18461037BD4680BD2C
:1026000080B584B000AF78600B46FB7097F903305B
:10261000002B0FDAFB7803F00F021346DB001344A4
:102620009B0010337A6813440433FB60FB6801227B
:102630005A700FE0FB7803F00F021346DB001344DF
:102640009B0003F514737A6813440433FB60FB6842
:1026500000225A70FB7803F00F03DAB2FB681A709D
:102660007B6893F89434012B01D102230EE07B6840
:10267000012283F894247B681B68F968184601F0EE
:1026800045FE7B68002283F8942400231846103707
:10269000BD4680BD80B586B000AFF8607A603B6013
:1026A0000B46FB72FB7A03F00F021346DB00134468
:1026B0009B0003F51473FA68134404337B617B6950
:1026C0007A68DA607B693A681A617B6900225A612C
:1026D0007B6900225A70FB7A03F00F03DAB27B6940
:1026E0001A70FB689B79012B02D17A687B69DA61E9
:1026F000FB681868FB689B791A46796901F0E2FE6D
:10270000002318461837BD4680BD80B483B000AFA3
:1027100078600B46FB70FB7803F00F027968134674
:10272000DB0013449B000B4403F51A731B68184627
:102730000C37BD465DF8047B704780B586B000AFAE
:10274000F8607A603B600B46FB72FB7A03F00F0285
:102750001346DB0013449B001033FA681344043320
:102760007B617B697A68DA607B693A681A617B69A8
:1027700000225A617B6901225A70FB7A03F00F0331
:10278000DAB27B691A70FB689B79012B02D17A68F7
:102790007B69DA61FB681868FB689B791A4679697E
:1027A00001F090FE002318461837BD4680BD80B565
:1027B00084B000AF78600B46FB70FB7803F00F032A
:1027C0007A681279934201D901234FE097F90330D7
:1027D000002B0FDAFB7803F00F021346DB001344E3
:1027E0009B0010337A6813440433FB60FB680122BA
:1027F0005A700DE0FA781346DB0013449B0003F592
:1028000014737A6813440433FB60FB6800225A7027
:10281000FB6801229A70FB7803F00F03DAB2FB68C1
:102820001A707B6893F89434012B01D102231DE0C8
:102830007B68012283F894247B681B68F96818463A
:1028400002F01EFAFB7803F00F03002B09D17B681E
:1028500018687B6899797B6803F29C431A4602F0FA
:102860000FFC7B68002283F894240023184610375D
:10287000BD4680BD80B584B000AF78600B46FB706C
:10288000FB7803F00F037A681279934201D9012390
:1028900042E097F90330002B0FDAFB7803F00F02C8
:1028A0001346DB0013449B0010337A68134404334F
:1028B000FB60FB6801225A700FE0FB7803F00F0207
:1028C0001346DB0013449B0003F514737A6813442A
:1028D0000433FB60FB6800225A70FB6800229A7088
:1028E000FB7803F00F03DAB2FB681A707B6893F889
:1028F0009434012B01D102230EE07B68012283F87E
:1029000094247B681B68F968184602F027FA7B68F4
:10291000002283F89424002318461037BD4680BD5A
:1029200080B584B000AF78600B46FB7097F9033038
:10293000002B0CDAFB7803F00F021346DB00134484
:102940009B0010337A6813440433FB600CE0FB787F
:1029500003F00F021346DB0013449B0003F51473CE
:102960007A6813440433FB607B681B68F968184677
:1029700002F046F80346FB72FB7A18461037BD4654
:1029800080BD80B58AB002AF786039607B681B6813
:102990007B617B693B613A681346DB0013449B0013
:1029A00010337A6813440433FB60FB685A69FB6890
:1029B0001B699A4201D901236BE0FB681A69FB6825
:1029C0005B69D31AFB61FB689B68FA699A4202D97A
:1029D000FB689B68FB61FB6903339B08BB612AE0D2
:1029E000FB681A69FB685B69D31AFB61FB689B682B
:1029F000FA699A4202D9FB689B68FB61FB69033361
:102A00009B08BB61FB68D9683B68DAB2FB6998B286
:102A10007B689B7900930346786902F09BF8FB681A
:102A2000DA68FB691A44FB68DA60FB685A69FB697B
:102A30001A44FB685A613B685A013B69134403F529
:102A400010639B699BB2BA699A4209D8FB685A69BC
:102A5000FB681B699A4203D2FB681B69002BBFD13C
:102A6000FB681A69FB685B699A4211D83B6803F0FE
:102A70000F03012202FA03F3BB603B6903F5006315
:102A80005A6BBB68DB43396901F5006113404B6346
:102A9000002318462037BD4680BD000080B588B0B1
:102AA00000AF786039607B681B68FB61FB69BB61C4
:102AB000FB693C3304331B687B613B685A01BB698B
:102AC000134403F530639B683B617B689B79012B62
:102AD0007BD13B6903F00803002B15D07B69614A69
:102AE000934240F2B9803B6903F40043002B00F0AD
:102AF000B3803B685A01BB69134403F530631A463F
:102B00004FF400439360A7E03B6903F02003002BE0
:102B100009D03B685A01BB69134403F530631A4678
:102B20002023936098E03B6903F02803002B40F0DA
:102B300093807B694B4A93420FD93B6903F400436E
:102B4000002B0AD03B685A01BB69134403F530637C
:102B50001A464FF4004393607EE03A681346DB0068
:102B600013449B0003F514737A6813440433FB6029
:102B7000FB681A6A3B685901BB690B4403F5306373
:102B80001B69C3F31203D21AFB685A613B68002B1E
:102B900014D1FB681B69002B09D17B6818687B681E
:102BA00003F29C431A46012102F06AFA06E0FB6830
:102BB000DA68FB685B691A44FB68DA603B68DBB281
:102BC0001946786804F054FD46E07B69264A934232
:102BD00024D13B6903F40043002B0AD03B685A011F
:102BE000BB69134403F530631A464FF40043936006
:102BF00032E03B6903F02003002B08D03B685A0108
:102C0000BB69134403F530631A46202393603B6885
:102C1000DBB21946786804F02BFD1DE03B68002B01
:102C200014D179683A681346DB0013449B000B44C7
:102C300003F519731B68002B08D17B6818687B6843
:102C400003F29C431A46002102F01AFA3B68DBB2F9
:102C50001946786804F00CFD002318462037BD465D
:102C600080BD00BF0A30544F0A31544F80B586B042
:102C700000AF786039607B681B687B617B693B6172
:102C80007B693C3304331B68FB603B685A013B693A
:102C9000134403F530639B68BB60FB68154A93429D
:102CA0000ED9BB6803F40043002B09D03B685A01DE
:102CB0003B69134403F530631A464FF400439360B5
:102CC000786804F0C3FCFB680A4A93420CD97B681D
:102CD0009B79012B08D17B6818687B6803F29C43C1
:102CE0001A46012102F0CCF9002318461837BD46D8
:102CF00080BD00BF0A30544F80B485B000AF78600B
:102D00000B46FB7013463B807B681B685B6ABB60AD
:102D1000FB78002B07D13B8819047B681B68BA68D5
:102D20000A439A6228E07B681B689B6A1B0CBA689E
:102D30001344BB600023FB730DE07B681A68FB7BC8
:102D400040339B0013445B681B0CBA681344BB60A0
:102D5000FB7B0133FB73FA7BFB78013B9A42ECD39C
:102D60003B8818047B681968FB78013BBA6802430A
:102D700040339B000B445A60002318461437BD466D
:102D80005DF8047B704780B483B000AF78600B4679
:102D90007B807B681B687A885A62002318460C3750
:102DA000BD465DF8047B704780B483B000AF7860A7
:102DB0000B46FB7000BF0C37BD465DF8047B7047C7
:102DC00080B586B000AF78607B68002B01D101230D
:102DD00067E27B681B6803F00103002B75D0884B0A
:102DE0009B6803F00C03042B0CD0854B9B6803F00D
:102DF0000C03082B12D1824B5B6803F48003B3F5FC
:102E0000800F0BD17E4B1B6803F40033002B5BD08B
:102E10007B685B68002B57D1012342E27B685B68CB
:102E2000B3F5803F06D1764B1B68754A43F4803377
:102E300013601DE07B685B68B3F5A02F0CD1704B6D
:102E40001B686F4A43F4802313606D4B1B686C4A08
:102E500043F4803313600BE0694B1B68684A23F42A
:102E600080331360664B1B68654A23F4802313602C
:102E70007B685B68002B13D0FEF770FA386108E0BE
:102E8000FEF76CFA02463B69D31A642B01D903237F
:102E900007E25B4B1B6803F40033002BF0D014E017
:102EA000FEF75CFA386108E0FEF758FA02463B6923
:102EB000D31A642B01D90323F3E1514B1B6803F4AC
:102EC0000033002BF0D100E000BF7B681B6803F0EB
:102ED0000203002B63D04A4B9B6803F00C03002BCA
:102EE0000BD0474B9B6803F00C03082B1CD1444BC1
:102EF0005B6803F48003002B16D1414B1B6803F081
:102F00000203002B05D07B68DB68012B01D0012375
:102F1000C7E13B4B1B6823F0F8027B681B69DB00B1
:102F2000374913430B603AE07B68DB68002B20D005
:102F3000344B01221A60FEF711FA386108E0FEF7FF
:102F40000DFA02463B69D31A022B01D90323A8E1EB
:102F50002B4B1B6803F00203002BF0D0284B1B689F
:102F600023F0F8027B681B69DB00254913430B60E3
:102F700015E0244B00221A60FEF7F0F9386108E0F2
:102F8000FEF7ECF902463B69D31A022B01D9032361
:102F900087E11B4B1B6803F00203002BF0D17B6819
:102FA0001B6803F00803002B36D07B685B69002B9D
:102FB00016D0154B01221A60FEF7D0F9386108E0EF
:102FC000FEF7CCF902463B69D31A022B01D9032341
:102FD00067E10B4B5B6F03F00203002BF0D01BE0AB
:102FE000094B00221A60FEF7B9F938610EE0FEF7CE
:102FF000B5F902463B69D31A022B07D9032350E1E6
:103000000038024000004742800E4742884B5B6F09
:1030100003F00203002BEAD17B681B6803F0040372
:10302000002B00F097800023FB75814B1B6C03F095
:103030008053002B0FD10023BB607D4B1B6C7C4A5F
:1030400043F0805313647A4B1B6C03F08053BB60D6
:10305000BB680123FB75774B1B6803F48073002B5F
:1030600018D1744B1B68734A43F480731360FEF7E6
:1030700075F9386108E0FEF771F902463B69D31A29
:10308000022B01D903230CE16A4B1B6803F4807304
:10309000002BF0D07B689B68012B06D1644B1B6F23
:1030A000634A43F0010313671CE07B689B68052BB0
:1030B0000CD15F4B1B6F5E4A43F0040313675C4BFC
:1030C0001B6F5B4A43F0010313670BE0584B1B6F08
:1030D000574A23F001031367554B1B6F544A23F0E3
:1030E000040313677B689B68002B15D0FEF736F945
:1030F00038610AE0FEF732F902463B69D31A41F221
:103100008832934201D90323CBE0494B1B6F03F074
:103110000203002BEED014E0FEF720F938610AE03C
:10312000FEF71CF902463B69D31A41F288329342FA
:1031300001D90323B5E03E4B1B6F03F00203002BC4
:10314000EED1FB7D012B05D1394B1B6C384A23F0A6
:10315000805313647B689B69002B00F0A180344B83
:103160009B6803F00C03082B5CD07B689B69022BE7
:1031700041D1314B00221A60FEF7F0F8386108E0C7
:10318000FEF7ECF802463B69D31A022B01D9032360
:1031900087E0274B1B6803F00073002BF0D17B689E
:1031A000DA697B681B6A1A437B685B6A9B011A4376
:1031B0007B689B6A5B08013B1B041A437B68DB6AE4
:1031C0001B061B4913434B601B4B01221A60FEF781
:1031D000C5F8386108E0FEF7C1F802463B69D31A2A
:1031E000022B01D903235CE0114B1B6803F0007331
:1031F000002BF0D054E0104B00221A60FEF7AEF81E
:10320000386108E0FEF7AAF802463B69D31A022BA0
:1032100001D9032345E0064B1B6803F00073002B24
:10322000F0D13DE07B689B69012B07D1012338E099
:103230000038024000700040600047421B4B5B6852
:10324000FB607B689B69012B28D0FB6803F480023C
:103250007B68DB699A4221D1FB6803F03F027B68FF
:103260001B6A9A421AD1FA6847F6C07313407A680B
:10327000526A9201934211D1FB6803F440327B6899
:103280009B6A5B08013B1B049A4207D1FB6803F071
:1032900070627B68DB6A1B069A4201D0012300E062
:1032A000002318461837BD4680BD00BF00380240D5
:1032B00080B584B000AF786039607B68002B01D1A5
:1032C0000123CCE0684B1B6803F007033A689A427D
:1032D0000CD9654B3A68D2B21A70634B1B6803F085
:1032E00007033A689A4201D00123B8E07B681B6863
:1032F00003F00203002B20D07B681B6803F004035B
:10330000002B05D0594B9B68584A43F4E053936017
:103310007B681B6803F00803002B05D0534B9B68A8
:10332000524A43F460439360504B9B6823F0F00291
:103330007B689B684D4913438B607B681B6803F077
:103340000103002B44D07B685B68012B07D1474BFE
:103350001B6803F40033002B19D101237FE07B6845
:103360005B68022B03D07B685B68032B07D13F4B64
:103370001B6803F00073002B09D101236FE03B4B66
:103380001B6803F00203002B01D1012367E0374BD8
:103390009B6823F003027B685B68344913438B60AE
:1033A000FDF7DCFFF8600AE0FDF7D8FF0246FB6896
:1033B000D31A41F28832934201D903234FE02B4BB9
:1033C0009B6803F00C027B685B689B009A42EBD120
:1033D000254B1B6803F007033A689A420CD2224B34
:1033E0003A68D2B21A70204B1B6803F007033A68A0
:1033F0009A4201D0012332E07B681B6803F004038A
:10340000002B08D0194B9B6823F4E0527B68DB68E3
:10341000164913438B607B681B6803F00803002B7D
:1034200009D0124B9B6823F460427B681B69DB0068
:103430000E4913438B6000F02DF802460B4B9B683E
:103440001B0903F00F030A49CB5C22FA03F3094A74
:103450001360094B1B681846FDF73CFF0023184614
:103460001037BD4680BD00BF003C0240003802401E
:10347000F4860008000000200400002080B400AFA3
:10348000034B01221A6000BFBD465DF8047B704704
:103490004C0047422DE9B04F90B000AF00237B6352
:1034A0000023FB6300233B630023BB63584B9B68F3
:1034B00003F00C03082B0DD0082B00F2A080002B8A
:1034C00002D0042B03D09AE0524BBB639AE0524BDC
:1034D000BB6397E04E4B5B6803F03F037B634C4B51
:1034E0005B6803F48003002B27D0494B5B689B0982
:1034F00000223B627A623B6AC3F308000021464B1C
:1035000003FB01F2002300FB03F31344424AA0FB38
:103510000221F962BA62FA6A1344FB627B6B0022F1
:10352000BB61FA61D7E90623D7E90A01FCF7B0FECF
:1035300002460B461346FB6353E0354B5B689B0921
:1035400000223B617A613B69C3F3080A4FF0000B2C
:1035500052465B464FF000004FF00001590141EA2E
:10356000D261500102460B46B2EB0A0863EB0B092D
:103570004FF000024FF000034FEA891343EA9863CB
:103580004FEA8812B2EB080463EB09054FF0000222
:103590004FF00003EB0043EA5473E20014461D466B
:1035A00014EB0A033B6045EB0B037B604FF000021A
:1035B0004FF00003D7E9004529468B02214643EA34
:1035C000915321468A02104619467B6B0022BB604C
:1035D000FA60D7E90223FCF75BFE02460B4613466E
:1035E000FB630B4B5B681B0C03F0030301335B00B5
:1035F0003B63FA6B3B6BB2FBF3F3BB6302E0054B3F
:10360000BB6300BFBB6B18464037BD46BDE8B08FFB
:10361000003802400024F40040787D0180B400AFFF
:10362000034B1B681846BD465DF8047B704700BF1E
:103630000000002080B582B000AF78607B68002B6E
:1036400001D1012341E07B6893F83D30DBB2002BD0
:1036500006D17B68002283F83C207868FDF738FDAE
:103660007B68022283F83D207B681A687B680433FC
:103670001946104600F0B2F97B68012283F8462013
:103680007B68012283F83E207B68012283F83F207B
:103690007B68012283F840207B68012283F8412067
:1036A0007B68012283F842207B68012283F8432053
:1036B0007B68012283F844207B68012283F845203F
:1036C0007B68012283F83D20002318460837BD4659
:1036D00080BD000080B485B000AF78607B6893F84F
:1036E0003D30DBB2012B01D0012344E07B68022294
:1036F00083F83D207B681B68DA687B681B6842F0B2
:103700000102DA607B681B681E4A934218D07B680E
:103710001B68B3F1804F13D07B681B681A4A934231
:103720000ED07B681B68194A934209D07B681B68DE
:10373000174A934204D07B681B68164A934211D102
:103740007B681B689B6803F00703FB60FB68062B24
:1037500010D07B681B681A687B681B6842F0010206
:103760001A6007E07B681B681A687B681B6842F078
:1037700001021A60002318461437BD465DF8047B29
:10378000704700BF000001400004004000080040F6
:10379000000C00400040014080B584B000AF78606C
:1037A0007B681B68DB68FB607B681B681B69BB6010
:1037B000BB6803F00203002B20D0FB6803F0020378
:1037C000002B1BD07B681B686FF002021A617B68BC
:1037D00001221A777B681B689B6903F00303002BA7
:1037E00003D0786800F0DCF805E0786800F0CEF8E7
:1037F000786800F0DFF87B6800221A77BB6803F076
:103800000403002B20D0FB6803F00403002B1BD023
:103810007B681B686FF004021A617B6802221A77CA
:103820007B681B689B6903F44073002B03D07868A6
:1038300000F0B6F805E0786800F0A8F8786800F0C5
:10384000B9F87B6800221A77BB6803F00803002BE5
:1038500020D0FB6803F00803002B1BD07B681B689B
:103860006FF008021A617B6804221A777B681B6874
:10387000DB6903F00303002B03D0786800F090F8B5
:1038800005E0786800F082F8786800F093F87B68CB
:1038900000221A77BB6803F01003002B20D0FB68CE
:1038A00003F01003002B1BD07B681B686FF0100225
:1038B0001A617B6808221A777B681B68DB6903F44E
:1038C0004073002B03D0786800F06AF805E0786850
:1038D00000F05CF8786800F06DF87B6800221A77D9
:1038E000BB6803F00103002B0CD0FB6803F001035D
:1038F000002B07D07B681B686FF001021A617868A3
:1039000000F03AF8BB6803F08003002B0CD0FB6892
:1039100003F08003002B07D07B681B686FF08002E8
:103920001A61786800F0EAF8BB6803F04003002BE6
:103930000CD0FB6803F04003002B07D07B681B68AA
:103940006FF040021A61786800F03EF8BB6803F03F
:103950002003002B0CD0FB6803F02003002B07D0C2
:103960007B681B686FF020021A61786800F0BCF871
:1039700000BF1037BD4680BD80B483B000AF786013
:1039800000BF0C37BD465DF8047B704780B483B040
:1039900000AF786000BF0C37BD465DF8047B704710
:1039A00080B483B000AF786000BF0C37BD465DF8CF
:1039B000047B704780B483B000AF786000BF0C37E1
:1039C000BD465DF8047B704780B483B000AF78607B
:1039D00000BF0C37BD465DF8047B704780B485B0EE
:1039E00000AF786039607B681B68FB607B68374A92
:1039F00093420FD07B68B3F1804F0BD07B68344A81
:103A0000934207D07B68334A934203D07B68324AA3
:103A1000934208D1FB6823F07003FB603B685B684E
:103A2000FA681343FB607B68284A93421BD07B688B
:103A3000B3F1804F17D07B68254A934213D07B683F
:103A4000244A93420FD07B68234A93420BD07B6871
:103A5000224A934207D07B68214A934203D07B6875
:103A6000204A934208D1FB6823F44073FB603B6813
:103A7000DB68FA681343FB60FB6823F080023B6855
:103A80005B691343FB603B689A687B68DA623B685A
:103A90001A687B689A627B680C4A934203D13B6840
:103AA0001A697B681A637B681B6843F004027B68B1
:103AB0001A607B6801225A617B68FA681A6000BF4D
:103AC0001437BD465DF8047B704700BF000001401D
:103AD0000004004000080040000C0040004001408D
:103AE000004401400048014080B483B000AF7860DA
:103AF00000BF0C37BD465DF8047B704780B483B0CF
:103B000000AF786000BF0C37BD465DF8047B70479E
:103B100084B080B584B000AF786007F11C0080E805
:103B20000E0097F82130012B23D17B689B6B23F487
:103B300080327B689A637B68DB6823F4840323F01C
:103B400040037A68D3607B68DB6823F440127B68AB
:103B5000DA6097F82830012B05D17B68DB6843F4E5
:103B600080127B68DA60786801F0E8FA0346FB733C
:103B70001BE07B68DB6843F040027B68DA607868B2
:103B800001F0DCFA0346FB7397F82530002B06D1D1
:103B90007B689B6B43F480327B689A6305E07B68AB
:103BA0009B6B23F480327B689A63BB7F012B0BD124
:103BB0007B689B6843F006027B689A607B689B6821
:103BC00043F020027B689A60FB7B18461037BD46A5
:103BD000BDE8804004B0704780B487B000AFF860A3
:103BE000B9601346FB71FB79022B65D1BB68414A72
:103BF000934206D9BB68404A934202D20F237B61AD
:103C000062E0BB683C4A934206D3BB683B4A93429E
:103C100002D20E237B6157E0BB68384A934206D339
:103C2000BB68374A934202D20D237B614CE0BB68EC
:103C3000334A934206D3BB68324A934202D80C23DC
:103C40007B6141E0BB682F4A934206D9BB682E4A8C
:103C5000934202D80B237B6136E0BB682A4A934229
:103C600006D9BB68294A934202D80A237B612BE01C
:103C7000BB68264A934206D9BB68254A934202D2C2
:103C800009237B6120E0BB68214A934206D3BB68CD
:103C9000204A934202D808237B6115E0BB681D4A85
:103CA000934206D9BB681C4A934202D207237B6128
:103CB0000AE006237B6107E0FB79002B02D1092390
:103CC0007B6101E009237B61FB68DB6823F47052B0
:103CD000FB68DA60FB68DA687B699B0203F4705367
:103CE0001A43FB68DA60002318461C37BD465DF8AE
:103CF000047B7047BFACD800C0E1E4000024F400AE
:103D0000807306019F491A01FF2C31013FA44C0129
:103D100000366E011FABA6010048E80180B483B0F5
:103D200000AF78607B689B6843F001027B689A6013
:103D3000002318460C37BD465DF8047B704780B4FD
:103D400083B000AF78607B689B6823F001027B68DA
:103D50009A60002318460C37BD465DF8047B704717
:103D600080B584B000AF78600B46FB700023FB6029
:103D70007B68DB6823F0C0427B68DA60FB78012B4C
:103D800015D17B68DB6843F000527B68DA600A205B
:103D9000FDF7F0FAFB680A33FB60786801F03FF941
:103DA0000346012B1ED0FB68C72BF0D91AE0FB7825
:103DB000002B15D17B68DB6843F080427B68DA60BA
:103DC0000A20FDF7D7FAFB680A33FB60786801F038
:103DD00026F90346002B05D0FB68C72BF0D901E07C
:103DE000012305E0FB68C82B01D1012300E000237B
:103DF00018461037BD4680BD84B080B586B000AF90
:103E0000786007F1240080E80E000023FB757B68D2
:103E1000FB6000233B6109E07A683B6940339B000B
:103E2000134400225A603B6901333B613B690E2B0E
:103E3000F2D997F82E30002B1CD1FB6803F50063F4
:103E40005B68FA6802F5006243F0020353607B6826
:103E50009B6B43F400127B689A637B689B6B23F433
:103E600000227B689A637B689B6B23F480227B68CB
:103E70009A630BE07B689B6B23F400127B689A6368
:103E80007B689B6B43F400227B689A63FB6803F5B5
:103E900060631A460023136097F82930012B0DD177
:103EA00097F82730002B04D10021786800F068F9DA
:103EB00008E00121786800F063F903E003217868E5
:103EC00000F05EF91021786800F0FAF80346002B44
:103ED00001D00123FB75786800F024F90346002B1C
:103EE00001D00123FB75FB6803F500631A4600232C
:103EF0001361FB6803F500631A4600235361FB68F6
:103F000003F500631A460023D36100233B6143E0BD
:103F10003B695A01FB68134403F510631B6803F007
:103F20000043B3F1004F18D13B69002B0AD13B6924
:103F30005A01FB68134403F510631A464FF00063FF
:103F4000136013E03B695A01FB68134403F51063E7
:103F50001A464FF09043136008E03B695A01FB6832
:103F6000134403F510631A46002313603B695A019A
:103F7000FB68134403F510631A46002313613B6981
:103F80005A01FB68134403F510631A464FF67F335A
:103F900093603B6901333B6197F824301A463B69D3
:103FA0009342B5D300233B6143E03B695A01FB6870
:103FB000134403F530631B6803F00043B3F1004F73
:103FC00018D13B69002B0AD13B695A01FB681344A5
:103FD00003F530631A464FF00063136013E03B694A
:103FE0005A01FB68134403F530631A464FF09043BF
:103FF000136008E03B695A01FB68134403F5306322
:104000001A46002313603B695A01FB68134403F509
:1040100030631A46002313613B695A01FB6813445D
:1040200003F530631A464FF67F3393603B690133E3
:104030003B6197F824301A463B699342B5D3FB683D
:1040400003F500631B69FA6802F5006223F48073CC
:1040500013617B6800229A617B686FF080425A612D
:1040600097F82630002B05D17B689B6943F010023E
:104070007B689A617B689A69104B13437A689361F5
:1040800097F82A30002B05D07B689B6943F0080223
:104090007B689A6197F82E30012B07D17B689B696A
:1040A00043F0804343F004037A689361FB7D184634
:1040B0001837BD46BDE8804004B0704700383C80EA
:1040C00080B485B000AF786039600023FB60FB6886
:1040D0000133FB60FB68B3F1706F01D903231BE070
:1040E0007B681B69002BF2DA0023FB603B689B01B5
:1040F00043F020027B681A61FB680133FB60FB68B8
:10410000B3F1706F01D9032306E07B681B6903F0EC
:104110002003202BF0D0002318461437BD465DF84D
:10412000047B704780B485B000AF78600023FB60EB
:10413000FB680133FB60FB68B3F1706F01D90323A7
:1041400018E07B681B69002BF2DA0023FB607B68B8
:1041500010221A61FB680133FB60FB68B3F1706FDA
:1041600001D9032306E07B681B6903F01003102BC1
:10417000F0D0002318461437BD465DF8047B704725
:1041800080B485B000AF78600B46FB707B68FB6045
:10419000FB6803F500631A68FB78F96801F50061B4
:1041A00013430B60002318461437BD465DF8047BAB
:1041B000704780B487B000AF78607B683B613B6933
:1041C00003F500639B6803F00603FB60FB68002BAC
:1041D00002D10023FB750AE0FB68022B02D0FB68CA
:1041E000062B02D10223FB7501E00F23FB75FB7D3B
:1041F00018461C37BD465DF8047B704780B485B017
:1042000000AF786039607B68FB603B681B78BB60FF
:104210003B685B78012B3AD1FB6803F50063DA69F0
:104220003B681B7803F00F03012101FA03F39BB2F3
:10423000F96801F500611343CB61BB685A01FB6863
:10424000134403F510631B6803F40043002B55D19E
:10425000BB685A01FB68134403F510631A683B6896
:104260009B68C3F30A013B681B799B041943BB6835
:104270009B050B431343BA685101FA680A4402F5DF
:10428000106243F0805343F40043136036E0FB6850
:1042900003F50063DA693B681B7803F00F03012123
:1042A00001FA03F31B04F96801F500611343CB61C4
:1042B000BB685A01FB68134403F530631B6803F4C1
:1042C0000043002B1AD1BB685A01FB68134403F565
:1042D00030631A683B689B68C3F30A013B681B792B
:1042E0009B040B431343BA685101FA680A4402F570
:1042F000306243F0805343F40043136000231846B8
:104300001437BD465DF8047B7047000080B485B06B
:1043100000AF786039607B68FB603B681B78BB60EE
:104320003B685B78012B61D1BB685A01FB68134481
:1043300003F510631B6803F00043B3F1004F1FD176
:10434000BB685A01FB68134403F510631B68BA6825
:104350005101FA680A4402F5106243F000631360E9
:10436000BB685A01FB68134403F510631B68BA6805
:104370005101FA680A4402F5106243F08043136069
:10438000FB6803F50063DA6B3B681B7803F00F03EF
:10439000012101FA03F39BB2DB43F96801F50061E7
:1043A0001340CB63FB6803F50063DA693B681B7855
:1043B00003F00F03012101FA03F39BB2DB43F96819
:1043C00001F500611340CB61BB685A01FB681344DF
:1043D00003F510631A68BB685901FB680B4403F5C9
:1043E00010631946354B13400B6060E0BB685A01FF
:1043F000FB68134403F530631B6803F00043B3F11B
:10440000004F1FD1BB685A01FB68134403F53063AA
:104410001B68BA685101FA680A4402F5306243F039
:1044200000631360BB685A01FB68134403F53063F3
:104430001B68BA685101FA680A4402F5306243F019
:1044400080431360FB6803F50063DA6B3B681B78FD
:1044500003F00F03012101FA03F31B04DB43F968A6
:1044600001F500611340CB63FB6803F50063DA6973
:104470003B681B7803F00F03012101FA03F31B04CF
:10448000DB43F96801F500611340CB61BB685A0159
:10449000FB68134403F530631A68BB685901FB6875
:1044A0000B4403F530631946054B13400B600023A2
:1044B00018461437BD465DF8047B7047007833EC2E
:1044C0000078F3EF80B58AB002AFF860B9601346A8
:1044D000FB71FB68FB61BB681B78BB61BB685B78E9
:1044E000012B40F07F81BB681B69002B32D1BB6977
:1044F0005A01FB69134403F510631B69BA69510142
:10450000FA690A4402F5106223F0FF5323F4C01342
:104510001361BB695A01FB69134403F510631B69FE
:10452000BA695101FA690A4402F5106243F40023A2
:104530001361BB695A01FB69134403F510631B69DE
:10454000BA695101FA690A4402F51062DB0CDB0416
:10455000136197E0BB695A01FB69134403F51063CB
:104560001B69BA695101FA690A4402F51062DB0C51
:10457000DB041361BB695A01FB69134403F5106343
:104580001B69BA695101FA690A4402F5106223F005
:10459000FF5323F4C0131361BB69002B1AD1BB680E
:1045A0001A69BB689B689A4203D9BB689A68BB6862
:1045B0001A61BB695A01FB69134403F510631B6957
:1045C000BA695101FA690A4402F5106243F4002302
:1045D000136144E0BB681A69BB689B6813445A1EA8
:1045E000BB689B68B2FBF3F3FB82BB695A01FB69B2
:1045F000134403F510631A69FB8AD904A44B0B40DA
:10460000B9694801F969014401F5106113430B616F
:10461000BB681B79012B22D1BB695A01FB6913448A
:1046200003F510631B69BA695101FA690A4402F57E
:10463000106223F0C0431361BB695A01FB69134444
:1046400003F510631A69FB8A5B0703F0C043B9697D
:104650004801F969014401F5106113430B61BB691D
:104660005A01FB69134403F510631A69BB681B699F
:10467000C3F31203B9694801F969014401F51061F6
:1046800013430B61FB79012B4BD1BB68DB69002B1A
:1046900009D0BB695A01FB69134403F510631A463C
:1046A000BB68DB695361BB681B79012B28D1FB69AF
:1046B00003F500639B6803F48073002B10D1BB6982
:1046C0005A01FB69134403F510631B68BA69510171
:1046D000FA690A4402F5106243F0005313600FE0D8
:1046E000BB695A01FB69134403F510631B68BA697F
:1046F0005101FA690A4402F5106243F080531360D5
:10470000BB695A01FB69134403F510631B68BA695E
:104710005101FA690A4402F5106243F00443136040
:1047200066E1BB695A01FB69134403F510631B681A
:10473000BA695101FA690A4402F5106243F0044370
:104740001360BB681B79012B15D0BB681B69002B5C
:1047500000F04E81FB6903F500635A6BBB681B7860
:1047600003F00F03012101FA03F3F96901F5006178
:1047700013434B633CE1FB6903F500639B6803F45F
:104780008073002B10D1BB695A01FB69134403F5F8
:1047900010631B68BA695101FA690A4402F5106294
:1047A00043F0005313600FE0BB695A01FB691344E7
:1047B00003F510631B68BA695101FA690A4402F5EE
:1047C000106243F080531360BB68D968BB681A78E5
:1047D000BB681B6998B2FB7900930346F86800F048
:1047E000B9F905E1BB695A01FB69134403F530636C
:1047F0001B69BA695101FA690A4402F53062DB0C9F
:10480000DB041361BB695A01FB69134403F5306390
:104810001B69BA695101FA690A4402F5306223F052
:10482000FF5323F4C0131361BB69002B32D1BB6863
:104830001B69002B03D0BB689A68BB681A61BB6810
:104840009A68BB681A62BB695A01FB69134403F595
:1048500030631A69BB681B6AC3F31203B969480164
:10486000F969014401F5306113430B61BB695A01D9
:10487000FB69134403F530631B69BA695101FA6996
:104880000A4402F5306243F40023136162E000BF82
:104890000000F81FBB681B69002B23D1BB695A01BC
:1048A000FB69134403F530631A69BB689B68C3F363
:1048B0001203B9694801F969014401F530611343F4
:1048C0000B61BB695A01FB69134403F530631B6933
:1048D000BA695101FA690A4402F5306243F40023CF
:1048E000136137E0BB681A69BB689B6813445A1EA2
:1048F000BB689B68B2FBF3F3FB82BB689B68FA8AD8
:1049000003FB02F2BB681A62BB695A01FB691344DC
:1049100003F530631A69FB8AD904384B0B40B96937
:104920004801F969014401F5306113430B61BB692A
:104930005A01FB69134403F530631A69BB681B6AAB
:10494000C3F31203B9694801F969014401F5306103
:1049500013430B61FB79012B0DD1BB68DB68002B86
:1049600009D0BB68D968BB695A01FB69134403F5D8
:1049700030630A465A61BB681B79012B28D1FB6959
:1049800003F500639B6803F48073002B10D1BB69AF
:104990005A01FB69134403F530631B68BA6951017E
:1049A000FA690A4402F5306243F0005313600FE0E5
:1049B000BB695A01FB69134403F530631B68BA698C
:1049C0005101FA690A4402F5306243F080531360E2
:1049D000BB695A01FB69134403F530631B68BA696C
:1049E0005101FA690A4402F5306243F0044313604E
:1049F000002318462037BD4680BD00BF0000F81FC9
:104A000080B487B000AF786039600023FB6000237A
:104A1000FB757B683B613B685B78012B4AD13B6847
:104A20001B785A013B69134403F510631B6803F0BC
:104A30000043B3F1004F40F086803B681B785A0179
:104A40003B69134403F510631B683A6812785101FF
:104A50003A690A4402F5106243F0006313603B6850
:104A60001B785A013B69134403F510631B683A68CD
:104A7000127851013A690A4402F5106243F080430A
:104A80001360FB680133FB60FB6842F210729342D3
:104A900002D90123FB7556E03B681B785A013B693C
:104AA000134403F510631B6803F00043B3F1004F98
:104AB000E7D048E03B681B785A013B69134403F593
:104AC00030631B6803F00043B3F1004F3BD13B68F8
:104AD0001B785A013B69134403F530631B683A683D
:104AE000127851013A690A4402F5306243F00063DA
:104AF00013603B681B785A013B69134403F530632C
:104B00001B683A68127851013A690A4402F530622A
:104B100043F080431360FB680133FB60FB6842F2A3
:104B20001072934202D90123FB750CE03B681B789D
:104B30005A013B69134403F530631B6803F00043DB
:104B4000B3F1004FE7D0FB7D18461C37BD465DF83A
:104B5000047B704780B489B000AFF860B96011463B
:104B60001A460B46FB711346BB80FB687B61BB6832
:104B7000FB6197F82830002B23D1BB8803339B08B7
:104B80003B610023BB6118E0FB791A037B69134486
:104B900003F580531A46FB691B681360FB690133F8
:104BA000FB61FB690133FB61FB690133FB61FB695D
:104BB0000133FB61BB690133BB61BA693B699A424E
:104BC000E2D3002318462437BD465DF8047B7047C6
:104BD00080B48BB000AFF860B9601346FB80FB680F
:104BE000BB61BB687B62FB889B089BB27B61FB88D7
:104BF00003F00303FB8300233B6214E0BB6903F56E
:104C000080531A687B6A1A607B6A01337B627B6A15
:104C100001337B627B6A01337B627B6A01337B6297
:104C20003B6A01333B623A6A7B699A42E6D3FB8B6B
:104C3000002B1ED000233B62BB6903F580531A464C
:104C400007F1100312681A603A693B6ADBB2DB00B5
:104C500022FA03F3DAB27B6A1A703B6A01333B62D1
:104C60007B6A01337B62FB8B013BFB83FB8B002B5D
:104C7000EAD17B6A18462C37BD465DF8047B704745
:104C800080B485B000AF786039607B68FB603B68BA
:104C90001B78BB603B685B78012B2CD1BB685A0149
:104CA000FB68134403F510631B68002B12DBBB6821
:104CB000002B0FD0BB685A01FB68134403F5106347
:104CC0001B68BA685101FA680A4402F5106223F0C1
:104CD00080431360BB685A01FB68134403F51063FB
:104CE0001B68BA685101FA680A4402F5106243F47D
:104CF000001313602BE0BB685A01FB68134403F5F3
:104D000030631B68002B12DBBB68002B0FD0BB6825
:104D10005A01FB68134403F530631B68BA685101FC
:104D2000FA680A4402F5306223F080431360BB68DE
:104D30005A01FB68134403F530631B68BA685101DC
:104D4000FA680A4402F5306243F40013136000234A
:104D500018461437BD465DF8047B704780B485B0B3
:104D600000AF786039607B68FB603B681B78BB6094
:104D70003B685B78012B28D1BB685A01FB68134460
:104D800003F510631B68BA685101FA680A4402F51A
:104D9000106223F4001313603B681B79032B03D0CC
:104DA0003B681B79022B38D1BB685A01FB6813445E
:104DB00003F510631B68BA685101FA680A4402F5EA
:104DC000106243F08053136027E0BB685A01FB6810
:104DD000134403F530631B68BA685101FA680A444A
:104DE00002F5306223F4001313603B681B79032B38
:104DF00003D03B681B79022B0FD1BB685A01FB68BB
:104E0000134403F530631B68BA685101FA680A4419
:104E100002F5306243F080531360002318461437C4
:104E2000BD465DF8047B704780B485B000AF786004
:104E30000B46FB707B68FB60FB6803F500631B6837
:104E4000FA6802F5006223F4FE631360FB6803F561
:104E500000631A68FB781B0103F4FE63F96801F52F
:104E6000006113430B60002318461437BD465DF8FC
:104E7000047B704780B485B000AF78607B68FB60CE
:104E8000FB6803F560631B68FA6802F5606223F053
:104E900003031360FB6803F500635B68FA6802F5BF
:104EA000006223F002035360002318461437BD4606
:104EB0005DF8047B704780B485B000AF78607B6894
:104EC000FB60FB6803F560631B68FA6802F56062CB
:104ED00023F003031360FB6803F500635B68FA6863
:104EE00002F5006243F002035360002318461437B2
:104EF000BD465DF8047B704780B485B000AF786034
:104F00007B685B69FB607B689B69FA681340FB60A8
:104F1000FB6818461437BD465DF8047B704780B4C3
:104F200085B000AF78607B68FB60FB6803F50063C9
:104F30009B69BB60FB6803F50063DB69BA681340DB
:104F4000BB60BB681B0C18461437BD465DF8047B7C
:104F5000704780B485B000AF78607B68FB60FB6809
:104F600003F500639B69BB60FB6803F50063DB69C5
:104F7000BA681340BB60BB689BB218461437BD4685
:104F80005DF8047B704780B485B000AF78600B4655
:104F9000FB707B68FB60FB785A01FB68134403F5E8
:104FA00030639B68BB60FB6803F500635B69BA68AC
:104FB0001340BB60BB6818461437BD465DF8047BE0
:104FC000704780B487B000AF78600B46FB707B6899
:104FD0007B617B6903F500631B693B617B6903F5BA
:104FE00000635B6BFB60FB7803F00F03FA6822FA47
:104FF00003F3DB01DBB23A6913433B61FB785A01EF
:105000007B69134403F510639B683A691340BB60E6
:10501000BB6818461C37BD465DF8047B704780B4FA
:1050200083B000AF78607B685B6903F001031846CA
:105030000C37BD465DF8047B704780B485B000AF87
:1050400078607B68FB60FB6803F510631B68FA6897
:1050500002F5106223F4FF6323F007031360FB687B
:1050600003F500635B68FA6802F5006243F480733D
:105070005360002318461437BD465DF8047B704723
:1050800080B487B000AFF8600B467A60FB72FB68B3
:105090007B61FB683C3304331B683B613B69264AF8
:1050A00093420AD97B6903F530631B6803F0004320
:1050B000B3F1004F01D1002337E07B6903F5306382
:1050C0001A46002313617B6903F530631B697A6913
:1050D00002F5306243F4002313617B6903F530630A
:1050E0001B697A6902F5306243F0180313617B692A
:1050F00003F530631B697A6902F5306243F0C043FF
:105100001361FB7A012B0FD17B6903F530631A46DB
:105110007B6853617B6903F530631B687A6902F52C
:10512000306243F080231360002318461C37BD46CD
:105130005DF8047B704700BF0A30544F80B485B0DF
:1051400000AF78600023FB60FB680133FB60FB6805
:10515000B3F1706F01D9032322E07B681B69002B38
:10516000F2DA0A23FB6002E0FB68013BFB60FB68AC
:10517000002BF9D17B681B6943F001027B681A613F
:10518000FB680133FB60FB68B3F1706F01D9032347
:1051900006E07B681B6903F00103012BF0D00023BC
:1051A00018461437BD465DF8047B704780B584B05F
:1051B00000AF78600B46FB704FF4077002F0B8FC4C
:1051C000F860FB68002B09D17B68D3F8D4227B6898
:1051D000B032002143F822100223D4E04FF40772CA
:1051E0000021F86802F0A6FD7B68D3F8D4227B6822
:1051F000B032F96843F822107B68D3F8D4227B6878
:10520000B03253F822207B68C3F8BC227B681B7C39
:10521000002B38D15E4B19784FF400730222786866
:1052200002F063FB5A4B1B7803F00F0279681346B8
:105230009B0013449B000B44233301221A70554BEF
:1052400019784FF400730222786802F04EFB514B3C
:105250001B7803F00F02796813469B0013449B00F0
:105260000B4403F2631301221A704B4B1B7803F0BB
:105270000F02796813469B0013449B000B441C33B8
:1052800010221A6035E0424B1978402302227868D8
:1052900002F02BFB3E4B1B7803F00F02796813469C
:1052A0009B0013449B000B44233301221A70394B9B
:1052B000197840230222786802F017FB354B1B78DF
:1052C00003F00F02796813469B0013449B000B44C4
:1052D00003F2631301221A702F4B1B7803F00F02A5
:1052E000796813469B0013449B000B441C33102227
:1052F0001A60294B197808230322786802F0F5FA1E
:10530000254B1B7803F00F02796813469B0013446A
:105310009B000B44233301221A70FB680022C3F860
:1053200004227B68D3F8D4327A68B0339B001344EC
:105330005B681B689847FB680022C3F81422FB686F
:105340000022C3F81822FB68D3F80432002B01D1E5
:10535000022318E07B681B7C002B0AD10D4B1978C7
:10536000FB68D3F804224FF40073786802F0ACFBBA
:1053700008E0084B1978FB68D3F8042240237868CA
:1053800002F0A2FB002318461037BD4680BD00BFC7
:1053900093000020940000209500002080B582B08A
:1053A00000AF78600B46FB703A4B1B781946786863
:1053B00002F0C1FA374B1B7803F00F0279681346ED
:1053C0009B0013449B000B44233300221A70324B82
:1053D0001B781946786802F0AEFA2F4B1B7803F061
:1053E0000F02796813469B0013449B000B4403F2A1
:1053F000631300221A70294B1B781946786802F053
:105400009AFA264B1B7803F00F02796813469B002B
:1054100013449B000B44233300221A701F4B1B784C
:1054200003F00F02796813469B0013449B000B4462
:105430001C3300221A607B68D3F8D4227B68B03218
:1054400053F82230002B1FD07B68D3F8D4327A680F
:10545000B0339B0013445B685B6898477B68D3F864
:10546000D4227B68B03253F82230184602F06EFB2B
:105470007B68D3F8D4227B68B032002143F8221035
:105480007B680022C3F8BC22002318460837BD46BB
:1054900080BD00BF930000209400002095000020F4
:1054A00080B586B000AF786039607B68D3F8D422CD
:1054B0007B68B03253F822303B6100237B730023BA
:1054C0007B810023FB753B69002B01D10323BFE0E7
:1054D0003B681B7803F06003002B50D0202B40F07A
:1054E000AF803B68DB88002B3AD03B681B785BB20F
:1054F000002B1BDA7B68D3F8D4327A68B0339B0078
:1055000013445B689B683A68507839693A68D28876
:1055100098473B68DB88072B28BF0723FB813B6943
:10552000FA891946786801F0A9FD90E03B685A783D
:105530003B6983F800223B68DB883F2B03D83B683C
:10554000DB88DAB200E040223B6983F80122396946
:105550003B6993F801321A46786801F0BEFD76E0A7
:105560007B68D3F8D4327A68B0339B0013445B680D
:105570009B683A68507800223968984767E03B6832
:105580005B780B2B51D801A252F823F0BD550008CF
:10559000395600082B5600082B5600082B560008D9
:1055A0002B5600082B5600082B5600082B560008D7
:1055B0002B560008E7550008115600087B6893F841
:1055C0009C32DBB2032B07D107F10A0302221946F2
:1055D000786801F053FD32E03968786801F0D1FC59
:1055E0000323FB752BE07B6893F89C32DBB2032B23
:1055F00007D107F10D0301221946786801F03EFD3D
:105600001DE03968786801F0BCFC0323FB7516E0E7
:105610007B6893F89C32DBB2032B0FD03968786833
:1056200001F0AFFC0323FB7508E03968786801F0EE
:10563000A8FC0323FB7502E000BF08E000BF06E002
:105640003968786801F09DFC0323FB7500BFFB7D82
:1056500018461837BD4680BD80B584B000AF78606D
:105660000B46FB707B68D3F8C832FB607B68D3F8CD
:10567000D4227B68B03253F82230002B01D10323AF
:1056800065E07B68D3F8D4227B68B03253F82230CF
:10569000BB60FB7803F00F02796813469B0013444C
:1056A0009B000B4414331B68002B2FD0FB7803F0B6
:1056B0000F02796813469B0013449B000B4414337C
:1056C0001A68FB7803F00F01F8680B46DB000B4407
:1056D0009B0003441C331B68B2FBF3F101FB03F393
:1056E000D31A002B12D1FB7803F00F02796813460E
:1056F0009B0013449B000B44143300221A60F9787A
:1057000000230022786802F0BEF91FE0BB68002287
:10571000C3F814227B68D3F8D4327A68B0339B0084
:1057200013445B681B69002B10D07B68D3F8D4321C
:105730007A68B0339B0013445B681B69BA68D2F87F
:105740000802BA6802F50471FA78984700231846EF
:105750001037BD4680BD80B584B000AF78600B4681
:10576000FB707B68D3F8D4227B68B03253F82230C8
:10577000FB607B68D3F8D4227B68B03253F82230C8
:10578000002B01D103231AE0FB781946786802F058
:10579000BCF90246FB68C3F80C227B68D3F8D4320C
:1057A0007A68B0339B0013445B68DB68FA68D2F810
:1057B0000402FA6802F5037211469847002318465E
:1057C0001037BD4680BD80B584B000AF78607B687F
:1057D000D3F8D4227B68B03253F82230FB60FB68E8
:1057E000002B01D1032324E07B68D3F8D4327A68FC
:1057F000B0339B0013445B68002B19D0FB6893F80F
:105800000032FF2B14D07B68D3F8D4327A68B033DF
:105810009B0013445B689B68FA6892F80002F96881
:10582000FA6892F801229847FB68FF2283F8002269
:10583000002318461037BD4680BD000080B586B0F5
:1058400000AF78608221184800F062FD7861012184
:10585000154800F05DFD38618121134800F058FDC6
:10586000F8607B69002B02D07B6910229A713B693A
:10587000002B06D03B69002242F040021A71002240
:105880005A71FB68002B06D0FB68002242F04002F0
:105890001A7100225A717B6843221A80024B184603
:1058A0001837BD4680BD00BF5000002080B586B0CF
:1058B00000AF78608221184800F02AFD786101214C
:1058C000154800F025FD38618121134800F020FDC6
:1058D000F8607B69002B02D07B6910229A713B69CA
:1058E000002B06D03B6900221A71002242F002020E
:1058F0005A71FB68002B06D0FB6800221A71002247
:1059000042F002025A717B6843221A80024B184609
:105910001837BD4680BD00BF5000002080B586B05E
:1059200000AF78608221184800F0F2FC7861012114
:10593000154800F0EDFC38618121134800F0E8FCC7
:10594000F8607B69002B02D07B6910229A713B6959
:10595000002B06D03B69002242F040021A7100225F
:105960005A71FB68002B06D0FB68002242F040020F
:105970001A7100225A717B6843221A80024B184622
:105980001837BD4680BD00BF5000002080B483B0F2
:1059900000AF78607B680A221A80034B18460C37E8
:1059A000BD465DF8047B70470C00002080B483B0D6
:1059B00000AF786039603B68002B01D1032309E018
:1059C0007B68D3F8D4327A68B0339B0013443A68CA
:1059D0005A60002318460C37BD465DF8047B7047BB
:1059E00080B487B000AFF860B9607A60FB68D3F824
:1059F000D422FB68B03253F822307B617B69002BE4
:105A000001D1032308E07B69BA68C3F808227B69E7
:105A10007A68C3F81022002318461C37BD465DF88B
:105A2000047B704780B485B000AF786039607B68D4
:105A3000D3F8D4227B68B03253F82230FB60FB6885
:105A4000002B01D1032304E0FB683A68C3F8042269
:105A5000002318461437BD465DF8047B70470000EC
:105A600080B584B000AF78607B68D3F8D4227B68BF
:105A7000B03253F82230BB600123FB73BB68002BAC
:105A800001D1032325E0BB68D3F81432002B1FD1CA
:105A9000BB680122C3F81422104B1B7803F00F02DD
:105AA000BB68D3F81012786813469B0013449B0020
:105AB000034414331960094B1978BB68D3F80822E2
:105AC000BB68D3F81032786801F0DDFF0023FB7368
:105AD000FB7B18461037BD4680BD00BF93000020F9
